{
    "_format": "hh-sol-artifact-1",
    "contractName": "Charity",
    "sourceName": "contracts/Charity.sol",
    "abi": [
        {
            "inputs": [
                {
                    "internalType": "address",
                    "name": "_charityNFT",
                    "type": "address"
                },
                {
                    "internalType": "string",
                    "name": "_nftURI",
                    "type": "string"
                }
            ],
            "stateMutability": "nonpayable",
            "type": "constructor"
        },
        {
            "inputs": [],
            "name": "EmptyDonationPool",
            "type": "error"
        },
        {
            "inputs": [],
            "name": "InvalidAccommodationId",
            "type": "error"
        },
        {
            "inputs": [],
            "name": "InvalidDonation",
            "type": "error"
        },
        {
            "inputs": [],
            "name": "InvalidRequestedAccommodationCost",
            "type": "error"
        },
        {
            "inputs": [],
            "name": "InvalidTransaction",
            "type": "error"
        },
        {
            "inputs": [],
            "name": "NoAvailableNFT",
            "type": "error"
        },
        {
            "inputs": [],
            "name": "ZeroAddress",
            "type": "error"
        },
        {
            "anonymous": false,
            "inputs": [
                {
                    "indexed": true,
                    "internalType": "uint256",
                    "name": "accommodationId",
                    "type": "uint256"
                },
                {
                    "indexed": false,
                    "internalType": "uint256",
                    "name": "requestedCost",
                    "type": "uint256"
                }
            ],
            "name": "CreatedAccommodationRequest",
            "type": "event"
        },
        {
            "anonymous": false,
            "inputs": [
                {
                    "indexed": true,
                    "internalType": "address",
                    "name": "user",
                    "type": "address"
                },
                {
                    "indexed": false,
                    "internalType": "uint256",
                    "name": "donationAmount",
                    "type": "uint256"
                }
            ],
            "name": "CreatedDonate",
            "type": "event"
        },
        {
            "anonymous": false,
            "inputs": [
                {
                    "indexed": true,
                    "internalType": "address",
                    "name": "previousOwner",
                    "type": "address"
                },
                {
                    "indexed": true,
                    "internalType": "address",
                    "name": "newOwner",
                    "type": "address"
                }
            ],
            "name": "OwnershipTransferred",
            "type": "event"
        },
        {
            "anonymous": false,
            "inputs": [
                {
                    "indexed": true,
                    "internalType": "address",
                    "name": "organization",
                    "type": "address"
                },
                {
                    "indexed": false,
                    "internalType": "uint256",
                    "name": "donationAmount",
                    "type": "uint256"
                }
            ],
            "name": "SentDonation",
            "type": "event"
        },
        {
            "anonymous": false,
            "inputs": [
                {
                    "indexed": true,
                    "internalType": "address",
                    "name": "nftAddress",
                    "type": "address"
                }
            ],
            "name": "SetCharityNFTAddress",
            "type": "event"
        },
        {
            "inputs": [
                {
                    "internalType": "uint256",
                    "name": "",
                    "type": "uint256"
                }
            ],
            "name": "accommodationCost",
            "outputs": [
                {
                    "internalType": "uint256",
                    "name": "requestedDonation",
                    "type": "uint256"
                },
                {
                    "internalType": "uint256",
                    "name": "currentDonation",
                    "type": "uint256"
                }
            ],
            "stateMutability": "view",
            "type": "function"
        },
        {
            "inputs": [
                {
                    "internalType": "uint256",
                    "name": "accommodationId",
                    "type": "uint256"
                },
                {
                    "internalType": "uint256",
                    "name": "cost",
                    "type": "uint256"
                }
            ],
            "name": "addAccommadation",
            "outputs": [],
            "stateMutability": "nonpayable",
            "type": "function"
        },
        {
            "inputs": [],
            "name": "charityNFT",
            "outputs": [
                {
                    "internalType": "contract ICharityNFT",
                    "name": "",
                    "type": "address"
                }
            ],
            "stateMutability": "view",
            "type": "function"
        },
        {
            "inputs": [
                {
                    "internalType": "uint256",
                    "name": "accommodationId",
                    "type": "uint256"
                }
            ],
            "name": "collectNFT",
            "outputs": [],
            "stateMutability": "nonpayable",
            "type": "function"
        },
        {
            "inputs": [
                {
                    "internalType": "uint256",
                    "name": "accommodationId",
                    "type": "uint256"
                }
            ],
            "name": "donate",
            "outputs": [],
            "stateMutability": "payable",
            "type": "function"
        },
        {
            "inputs": [],
            "name": "owner",
            "outputs": [
                {
                    "internalType": "address",
                    "name": "",
                    "type": "address"
                }
            ],
            "stateMutability": "view",
            "type": "function"
        },
        {
            "inputs": [],
            "name": "renounceOwnership",
            "outputs": [],
            "stateMutability": "nonpayable",
            "type": "function"
        },
        {
            "inputs": [
                {
                    "internalType": "address",
                    "name": "organization",
                    "type": "address"
                },
                {
                    "internalType": "uint256",
                    "name": "donationAmount",
                    "type": "uint256"
                }
            ],
            "name": "sendDonation",
            "outputs": [],
            "stateMutability": "payable",
            "type": "function"
        },
        {
            "inputs": [
                {
                    "internalType": "address",
                    "name": "_charityNFT",
                    "type": "address"
                },
                {
                    "internalType": "string",
                    "name": "_nftURI",
                    "type": "string"
                }
            ],
            "name": "setNFTAddress",
            "outputs": [],
            "stateMutability": "nonpayable",
            "type": "function"
        },
        {
            "inputs": [],
            "name": "totalDonationPool",
            "outputs": [
                {
                    "internalType": "uint256",
                    "name": "",
                    "type": "uint256"
                }
            ],
            "stateMutability": "view",
            "type": "function"
        },
        {
            "inputs": [
                {
                    "internalType": "address",
                    "name": "newOwner",
                    "type": "address"
                }
            ],
            "name": "transferOwnership",
            "outputs": [],
            "stateMutability": "nonpayable",
            "type": "function"
        },
        {
            "inputs": [
                {
                    "internalType": "uint256",
                    "name": "",
                    "type": "uint256"
                },
                {
                    "internalType": "address",
                    "name": "",
                    "type": "address"
                }
            ],
            "name": "userDonationsInfo",
            "outputs": [
                {
                    "internalType": "uint256",
                    "name": "donationBalance",
                    "type": "uint256"
                },
                {
                    "internalType": "bool",
                    "name": "isAvailableNFT",
                    "type": "bool"
                },
                {
                    "internalType": "bool",
                    "name": "isUnAvailableDonate",
                    "type": "bool"
                }
            ],
            "stateMutability": "view",
            "type": "function"
        },
        {
            "stateMutability": "payable",
            "type": "receive"
        }
    ],
    "bytecode": "0x60806040523480156200001157600080fd5b5060405162001ffc38038062001ffc833981810160405281019062000037919062000436565b620000576200004b6200007160201b60201c565b6200007960201b60201c565b6200006982826200013d60201b60201c565b5050620007ce565b600033905090565b60008060009054906101000a900473ffffffffffffffffffffffffffffffffffffffff169050816000806101000a81548173ffffffffffffffffffffffffffffffffffffffff021916908373ffffffffffffffffffffffffffffffffffffffff1602179055508173ffffffffffffffffffffffffffffffffffffffff168173ffffffffffffffffffffffffffffffffffffffff167f8be0079c531659141344cd1fd0a4f28419497f9722a3daafe3b4186f6b6457e060405160405180910390a35050565b600073ffffffffffffffffffffffffffffffffffffffff168273ffffffffffffffffffffffffffffffffffffffff1603620001a4576040517fd92e233d00000000000000000000000000000000000000000000000000000000815260040160405180910390fd5b81600160006101000a81548173ffffffffffffffffffffffffffffffffffffffff021916908373ffffffffffffffffffffffffffffffffffffffff1602179055508060029081620001f69190620006e7565b508173ffffffffffffffffffffffffffffffffffffffff167f45248abf1872312e938119c396fe778ea50391408bd2ac5f32f1ff1b14dfa80660405160405180910390a25050565b6000604051905090565b600080fd5b600080fd5b600073ffffffffffffffffffffffffffffffffffffffff82169050919050565b60006200027f8262000252565b9050919050565b620002918162000272565b81146200029d57600080fd5b50565b600081519050620002b18162000286565b92915050565b600080fd5b600080fd5b6000601f19601f8301169050919050565b7f4e487b7100000000000000000000000000000000000000000000000000000000600052604160045260246000fd5b6200030c82620002c1565b810181811067ffffffffffffffff821117156200032e576200032d620002d2565b5b80604052505050565b6000620003436200023e565b905062000351828262000301565b919050565b600067ffffffffffffffff821115620003745762000373620002d2565b5b6200037f82620002c1565b9050602081019050919050565b60005b83811015620003ac5780820151818401526020810190506200038f565b60008484015250505050565b6000620003cf620003c98462000356565b62000337565b905082815260208101848484011115620003ee57620003ed620002bc565b5b620003fb8482856200038c565b509392505050565b600082601f8301126200041b576200041a620002b7565b5b81516200042d848260208601620003b8565b91505092915050565b6000806040838503121562000450576200044f62000248565b5b60006200046085828601620002a0565b925050602083015167ffffffffffffffff8111156200048457620004836200024d565b5b620004928582860162000403565b9150509250929050565b600081519050919050565b7f4e487b7100000000000000000000000000000000000000000000000000000000600052602260045260246000fd5b60006002820490506001821680620004ef57607f821691505b602082108103620005055762000504620004a7565b5b50919050565b60008190508160005260206000209050919050565b60006020601f8301049050919050565b600082821b905092915050565b6000600883026200056f7fffffffffffffffffffffffffffffffffffffffffffffffffffffffffffffffff8262000530565b6200057b868362000530565b95508019841693508086168417925050509392505050565b6000819050919050565b6000819050919050565b6000620005c8620005c2620005bc8462000593565b6200059d565b62000593565b9050919050565b6000819050919050565b620005e483620005a7565b620005fc620005f382620005cf565b8484546200053d565b825550505050565b600090565b6200061362000604565b62000620818484620005d9565b505050565b5b8181101562000648576200063c60008262000609565b60018101905062000626565b5050565b601f821115620006975762000661816200050b565b6200066c8462000520565b810160208510156200067c578190505b620006946200068b8562000520565b83018262000625565b50505b505050565b600082821c905092915050565b6000620006bc600019846008026200069c565b1980831691505092915050565b6000620006d78383620006a9565b9150826002028217905092915050565b620006f2826200049c565b67ffffffffffffffff8111156200070e576200070d620002d2565b5b6200071a8254620004d6565b620007278282856200064c565b600060209050601f8311600181146200075f57600084156200074a578287015190505b620007568582620006c9565b865550620007c6565b601f1984166200076f866200050b565b60005b82811015620007995784890151825560018201915060208501945060208101905062000772565b86831015620007b95784890151620007b5601f891682620006a9565b8355505b6001600288020188555050505b505050505050565b61181e80620007de6000396000f3fe6080604052600436106100ab5760003560e01c8063bbf3803c11610064578063bbf3803c1461021a578063c814fc9414610259578063cd4646cb14610282578063d657846a1461029e578063f14faf6f146102c9578063f2fde38b146102e557610118565b806314cd8e771461011d578063351983b01461014857806364d82b9d14610171578063715018a6146101af5780637ca77b15146101c65780638da5cb5b146101ef57610118565b3661011857600073ffffffffffffffffffffffffffffffffffffffff163373ffffffffffffffffffffffffffffffffffffffff1614610116576040517f500a07ce00000000000000000000000000000000000000000000000000000000815260040160405180910390fd5b005b600080fd5b34801561012957600080fd5b5061013261030e565b60405161013f9190610d27565b60405180910390f35b34801561015457600080fd5b5061016f600480360381019061016a9190610d82565b610314565b005b34801561017d57600080fd5b5061019860048036038101906101939190610dc2565b6103e5565b6040516101a6929190610def565b60405180910390f35b3480156101bb57600080fd5b506101c4610409565b005b3480156101d257600080fd5b506101ed60048036038101906101e89190610fbc565b61041d565b005b3480156101fb57600080fd5b50610204610433565b6040516102119190611027565b60405180910390f35b34801561022657600080fd5b50610241600480360381019061023c9190611042565b61045c565b6040516102509392919061109d565b60405180910390f35b34801561026557600080fd5b50610280600480360381019061027b9190610dc2565b6104ad565b005b61029c600480360381019061029791906110d4565b610646565b005b3480156102aa57600080fd5b506102b3610844565b6040516102c09190611173565b60405180910390f35b6102e360048036038101906102de9190610dc2565b61086a565b005b3480156102f157600080fd5b5061030c6004803603810190610307919061118e565b610a43565b005b60055481565b6000820361034e576040517fb0d5a27800000000000000000000000000000000000000000000000000000000815260040160405180910390fd5b60008103610388576040517fc913229c00000000000000000000000000000000000000000000000000000000815260040160405180910390fd5b6000600460008481526020019081526020016000209050818160000181905550827fd329ddda76f40b394cce0e9daeb426d419f0e69343f49f739943fb034ead49ae836040516103d89190610d27565b60405180910390a2505050565b60046020528060005260406000206000915090508060000154908060010154905082565b610411610ac6565b61041b6000610b44565b565b610425610ac6565b61042f8282610c08565b5050565b60008060009054906101000a900473ffffffffffffffffffffffffffffffffffffffff16905090565b6003602052816000526040600020602052806000526040600020600091509150508060000154908060010160009054906101000a900460ff16908060010160019054906101000a900460ff16905083565b600081036104e7576040517fb0d5a27800000000000000000000000000000000000000000000000000000000815260040160405180910390fd5b60006003600083815260200190815260200160002060003373ffffffffffffffffffffffffffffffffffffffff1673ffffffffffffffffffffffffffffffffffffffff16815260200190815260200160002090508060010160009054906101000a900460ff16610583576040517fefbc492800000000000000000000000000000000000000000000000000000000815260040160405180910390fd5b60008160010160016101000a81548160ff021916908315150217905550600160009054906101000a900473ffffffffffffffffffffffffffffffffffffffff1673ffffffffffffffffffffffffffffffffffffffff1663eacabe143360026040518363ffffffff1660e01b81526004016105fe9291906112c5565b6020604051808303816000875af115801561061d573d6000803e3d6000fd5b505050506040513d601f19601f82011682018060405250810190610641919061130a565b505050565b61064e610ac6565b600073ffffffffffffffffffffffffffffffffffffffff168273ffffffffffffffffffffffffffffffffffffffff16036106b4576040517fd92e233d00000000000000000000000000000000000000000000000000000000815260040160405180910390fd5b600081036106ee576040517fed0a901a00000000000000000000000000000000000000000000000000000000815260040160405180910390fd5b60006005540361072a576040517f2de4847900000000000000000000000000000000000000000000000000000000815260040160405180910390fd5b60008273ffffffffffffffffffffffffffffffffffffffff168260405161075090611368565b60006040518083038185875af1925050503d806000811461078d576040519150601f19603f3d011682016040523d82523d6000602084013e610792565b606091505b50509050806107d6576040517f08c379a00000000000000000000000000000000000000000000000000000000081526004016107cd906113c9565b60405180910390fd5b81600560008282546107e89190611418565b925050819055508273ffffffffffffffffffffffffffffffffffffffff167f63af350cbcd10ed52a8a0ff7163422f1f494e3489d01668d64162df56bfef86e6005546040516108379190610d27565b60405180910390a2505050565b600160009054906101000a900473ffffffffffffffffffffffffffffffffffffffff1681565b600081036108a4576040517fb0d5a27800000000000000000000000000000000000000000000000000000000815260040160405180910390fd5b600060046000838152602001908152602001600020905060003414806108dc575080600001543482600101546108da919061144c565b115b15610913576040517fed0a901a00000000000000000000000000000000000000000000000000000000815260040160405180910390fd5b60006003600084815260200190815260200160002060003373ffffffffffffffffffffffffffffffffffffffff1673ffffffffffffffffffffffffffffffffffffffff16815260200190815260200160002090503481600001600082825461097b919061144c565b9250508190555060018160010160006101000a81548160ff02191690831515021790555060018160010160016101000a81548160ff02191690831515021790555034600560008282546109ce919061144c565b92505081905550348260010160008282546109e9919061144c565b925050819055503373ffffffffffffffffffffffffffffffffffffffff167fa7907e0c8395f0233512469cbb09b7d84288f87c66e73fe1f7545806adc7c37734604051610a369190610d27565b60405180910390a2505050565b610a4b610ac6565b600073ffffffffffffffffffffffffffffffffffffffff168173ffffffffffffffffffffffffffffffffffffffff1603610aba576040517f08c379a0000000000000000000000000000000000000000000000000000000008152600401610ab1906114f2565b60405180910390fd5b610ac381610b44565b50565b610ace610d06565b73ffffffffffffffffffffffffffffffffffffffff16610aec610433565b73ffffffffffffffffffffffffffffffffffffffff1614610b42576040517f08c379a0000000000000000000000000000000000000000000000000000000008152600401610b399061155e565b60405180910390fd5b565b60008060009054906101000a900473ffffffffffffffffffffffffffffffffffffffff169050816000806101000a81548173ffffffffffffffffffffffffffffffffffffffff021916908373ffffffffffffffffffffffffffffffffffffffff1602179055508173ffffffffffffffffffffffffffffffffffffffff168173ffffffffffffffffffffffffffffffffffffffff167f8be0079c531659141344cd1fd0a4f28419497f9722a3daafe3b4186f6b6457e060405160405180910390a35050565b600073ffffffffffffffffffffffffffffffffffffffff168273ffffffffffffffffffffffffffffffffffffffff1603610c6e576040517fd92e233d00000000000000000000000000000000000000000000000000000000815260040160405180910390fd5b81600160006101000a81548173ffffffffffffffffffffffffffffffffffffffff021916908373ffffffffffffffffffffffffffffffffffffffff1602179055508060029081610cbe9190611716565b508173ffffffffffffffffffffffffffffffffffffffff167f45248abf1872312e938119c396fe778ea50391408bd2ac5f32f1ff1b14dfa80660405160405180910390a25050565b600033905090565b6000819050919050565b610d2181610d0e565b82525050565b6000602082019050610d3c6000830184610d18565b92915050565b6000604051905090565b600080fd5b600080fd5b610d5f81610d0e565b8114610d6a57600080fd5b50565b600081359050610d7c81610d56565b92915050565b60008060408385031215610d9957610d98610d4c565b5b6000610da785828601610d6d565b9250506020610db885828601610d6d565b9150509250929050565b600060208284031215610dd857610dd7610d4c565b5b6000610de684828501610d6d565b91505092915050565b6000604082019050610e046000830185610d18565b610e116020830184610d18565b9392505050565b600073ffffffffffffffffffffffffffffffffffffffff82169050919050565b6000610e4382610e18565b9050919050565b610e5381610e38565b8114610e5e57600080fd5b50565b600081359050610e7081610e4a565b92915050565b600080fd5b600080fd5b6000601f19601f8301169050919050565b7f4e487b7100000000000000000000000000000000000000000000000000000000600052604160045260246000fd5b610ec982610e80565b810181811067ffffffffffffffff82111715610ee857610ee7610e91565b5b80604052505050565b6000610efb610d42565b9050610f078282610ec0565b919050565b600067ffffffffffffffff821115610f2757610f26610e91565b5b610f3082610e80565b9050602081019050919050565b82818337600083830152505050565b6000610f5f610f5a84610f0c565b610ef1565b905082815260208101848484011115610f7b57610f7a610e7b565b5b610f86848285610f3d565b509392505050565b600082601f830112610fa357610fa2610e76565b5b8135610fb3848260208601610f4c565b91505092915050565b60008060408385031215610fd357610fd2610d4c565b5b6000610fe185828601610e61565b925050602083013567ffffffffffffffff81111561100257611001610d51565b5b61100e85828601610f8e565b9150509250929050565b61102181610e38565b82525050565b600060208201905061103c6000830184611018565b92915050565b6000806040838503121561105957611058610d4c565b5b600061106785828601610d6d565b925050602061107885828601610e61565b9150509250929050565b60008115159050919050565b61109781611082565b82525050565b60006060820190506110b26000830186610d18565b6110bf602083018561108e565b6110cc604083018461108e565b949350505050565b600080604083850312156110eb576110ea610d4c565b5b60006110f985828601610e61565b925050602061110a85828601610d6d565b9150509250929050565b6000819050919050565b600061113961113461112f84610e18565b611114565b610e18565b9050919050565b600061114b8261111e565b9050919050565b600061115d82611140565b9050919050565b61116d81611152565b82525050565b60006020820190506111886000830184611164565b92915050565b6000602082840312156111a4576111a3610d4c565b5b60006111b284828501610e61565b91505092915050565b7f4e487b7100000000000000000000000000000000000000000000000000000000600052602260045260246000fd5b6000600282049050600182168061120257607f821691505b602082108103611215576112146111bb565b5b50919050565b600082825260208201905092915050565b60008190508160005260206000209050919050565b6000815461124e816111ea565b611258818661121b565b945060018216600081146112735760018114611289576112bc565b60ff1983168652811515602002860193506112bc565b6112928561122c565b60005b838110156112b457815481890152600182019150602081019050611295565b808801955050505b50505092915050565b60006040820190506112da6000830185611018565b81810360208301526112ec8184611241565b90509392505050565b60008151905061130481610d56565b92915050565b6000602082840312156113205761131f610d4c565b5b600061132e848285016112f5565b91505092915050565b600081905092915050565b50565b6000611352600083611337565b915061135d82611342565b600082019050919050565b600061137382611345565b9150819050919050565b7f494e56414c49445f5452414e5346455200000000000000000000000000000000600082015250565b60006113b360108361121b565b91506113be8261137d565b602082019050919050565b600060208201905081810360008301526113e2816113a6565b9050919050565b7f4e487b7100000000000000000000000000000000000000000000000000000000600052601160045260246000fd5b600061142382610d0e565b915061142e83610d0e565b9250828203905081811115611446576114456113e9565b5b92915050565b600061145782610d0e565b915061146283610d0e565b925082820190508082111561147a576114796113e9565b5b92915050565b7f4f776e61626c653a206e6577206f776e657220697320746865207a65726f206160008201527f6464726573730000000000000000000000000000000000000000000000000000602082015250565b60006114dc60268361121b565b91506114e782611480565b604082019050919050565b6000602082019050818103600083015261150b816114cf565b9050919050565b7f4f776e61626c653a2063616c6c6572206973206e6f7420746865206f776e6572600082015250565b600061154860208361121b565b915061155382611512565b602082019050919050565b600060208201905081810360008301526115778161153b565b9050919050565b600081519050919050565b60006020601f8301049050919050565b600082821b905092915050565b6000600883026115d67fffffffffffffffffffffffffffffffffffffffffffffffffffffffffffffffff82611599565b6115e08683611599565b95508019841693508086168417925050509392505050565b600061161361160e61160984610d0e565b611114565b610d0e565b9050919050565b6000819050919050565b61162d836115f8565b6116416116398261161a565b8484546115a6565b825550505050565b600090565b611656611649565b611661818484611624565b505050565b5b818110156116855761167a60008261164e565b600181019050611667565b5050565b601f8211156116ca5761169b8161122c565b6116a484611589565b810160208510156116b3578190505b6116c76116bf85611589565b830182611666565b50505b505050565b600082821c905092915050565b60006116ed600019846008026116cf565b1980831691505092915050565b600061170683836116dc565b9150826002028217905092915050565b61171f8261157e565b67ffffffffffffffff81111561173857611737610e91565b5b61174282546111ea565b61174d828285611689565b600060209050601f831160018114611780576000841561176e578287015190505b61177885826116fa565b8655506117e0565b601f19841661178e8661122c565b60005b828110156117b657848901518255600182019150602085019450602081019050611791565b868310156117d357848901516117cf601f8916826116dc565b8355505b6001600288020188555050505b50505050505056fea264697066735822122032bec3bba1a4b892605eb03201e7883a197c02d561dcc474d83f76cf456328eb64736f6c63430008110033",
    "linkReferences": {},
    "deployedLinkReferences": {}
}